:020000040800F2
:100000002034002061070008C1070008C10700086C
:10001000C1070008C1070008C10700080000000070
:10002000000000000000000000000000C107000800
:10003000C107000800000000C1070008C107000850
:10004000C1070008C1070008C1070008C107000870
:10005000C1070008C1070008C1070008C107000860
:10006000C1070008C1070008C1070008C107000850
:10007000C1070008C1070008D50B0008C107000828
:10008000C1070008C1070008C1070008C107000830
:10009000C1070008C1070008C1070008C107000820
:1000A000C1070008C1070008C1070008C107000810
:1000B000C1070008C10700083D0C0008C10700087F
:1000C000C1070008C1070008C1070008C1070008F0
:1000D000C1070008C1070008C1070008C1070008E0
:1000E000C1070008C1070008C107000800000000A0
:1000F0000000000000000000000000000000000000
:1001000000000000000000005FF808F180B485B036
:1001100000AF786039600023FB817B681B88FB811E
:100120007B682E4A934213D07B682D4A93420FD0AE
:100130007B68B3F1804F0BD07B682A4A934207D08B
:100140007B68294A934203D07B68284A934208D1AE
:10015000FB8923F07003FB813B685A88FB891343BA
:10016000FB817B68224A93420CD07B68214A9342F0
:1001700008D0FB8923F44073FB813B68DA88FB8954
:100180001343FB817B68FA891A803B689A887B68F5
:100190009A853B681A887B681A857B680F4A934268
:1001A0000FD07B680E4A93420BD07B68124A934271
:1001B00007D07B68114A934203D07B68104A934270
:1001C00004D13B681B7A9AB27B681A867B6801224D
:1001D0009A8200BF1437BD4680BC7047002C014096
:1001E000003401400004004000080040000C0040C2
:1001F0000010004000140040004001400044014055
:100200000048014080B485B000AF786039600023B9
:100210007B810023FB810023BB817B681B8C9BB20D
:1002200023F001039AB27B681A847B681B8CFB81E4
:100230007B689B88BB817B681B8B7B817B8923F0E0
:1002400070037B817B8923F003037B813B681A88E1
:100250007B8913437B81FB8923F00203FB813B688D
:100260001A89FB891343FB813B685A88FB89134336
:10027000FB817B68244A93420FD07B68234A9342D8
:100280000BD07B68224A934207D07B68214A934275
:1002900003D07B68204A934223D1FB8923F00803D3
:1002A000FB813B685A89FB891343FB81FB8923F05F
:1002B0000403FB813B689A88FB891343FB81BB895C
:1002C00023F48073BB81BB8923F40073BB813B683B
:1002D0009A89BB891343BB813B68DA89BB89134385
:1002E000BB817B68BA899A807B687A891A833B686C
:1002F000DA887B689A867B68FA891A8400BF14378B
:10030000BD4680BC704700BF002C01400034014056
:1003100000400140004401400048014080B485B0E5
:1003200000AF7860396000237B810023FB810023CC
:10033000BB817B681B8C9BB223F010039AB27B6855
:100340001A847B681B8CFB817B689B88BB817B68E4
:100350001B8B7B817B8923F4E0437B817B8923F4A6
:1003600040737B813B681B881B029AB27B891343D5
:100370007B81FB8923F02003FB813B681B891B01E8
:100380009AB2FB891343FB813B685B881B019AB2DD
:10039000FB891343FB817B68224A934203D07B682D
:1003A000214A93422BD1FB8923F08003FB813B68D8
:1003B0005B891B019AB2FB891343FB81FB8923F004
:1003C0004003FB813B689B881B019AB2FB89134366
:1003D000FB81BB8923F48063BB81BB8923F4006369
:1003E000BB813B689B899B009AB2BB891343BB814D
:1003F0003B68DB899B009AB2BB891343BB817B6856
:10040000BA899A807B687A891A833B68DA887B6824
:100410001A877B68FA891A8400BF1437BD4680BCEE
:10042000704700BF002C01400034014080B483B00D
:1004300000AF78600B46FB70FB78002B08D07B6820
:100440001B889BB243F001039AB27B681A8007E0D5
:100450007B681B889BB223F001039AB27B681A80E9
:1004600000BF0C37BD4680BC704700BF80B483B06E
:1004700000AF78600B467B8013467B707B78002B47
:1004800008D07B689B899AB27B8813439AB27B68B9
:100490009A8109E07B689B899AB27B88DB439BB297
:1004A00013409AB27B689A8100BF0C37BD4680BC6E
:1004B000704700BF80B483B000AF78600B467B808C
:1004C00013467B707B78002B08D07B689B899AB29F
:1004D0007B8813439AB27B689A8109E07B689B8989
:1004E0009AB27B88DB439BB213409AB27B689A81B5
:1004F00000BF0C37BD4680BC704700BF80B483B0DE
:1005000000AF78600B46FB70FB78002B08D07B684F
:100510001B889BB243F080039AB27B681A8007E085
:100520007B681B889BB223F080039AB27B681A8099
:1005300000BF0C37BD4680BC704700BF80B485B09B
:1005400000AF78600B467B800023FB817B681B8BB0
:10055000FB81FB8923F00803FB81FA897B88134325
:10056000FB817B68FA891A8300BF1437BD4680BCC3
:10057000704700BF80B485B000AF78600B467B80C9
:100580000023FB817B681B8BFB81FB8923F40063C9
:10059000FB817B881B029AB2FB891343FB817B683A
:1005A000FA891A8300BF1437BD4680BC704700BF6C
:1005B00080B483B000AF78600B467B807B687A881C
:1005C0009A8400BF0C37BD4680BC704780B483B0AE
:1005D00000AF78600B467B807B88DB439AB27B68F8
:1005E0001A8200BF0C37BD4680BC704780B500AF93
:1005F000154A154B1B6843F0010313601249124B57
:100600005A68124B13404B600F4A0F4B1B6823F084
:10061000847323F4803313600B4A0B4B1B6823F461
:1006200080231360084A084B5B6823F4FE03536081
:10063000054B4FF41F029A6000F00CF8044B4FF08A
:1006400000629A6000BF80BD001002400000FFF809
:1006500000ED00E080B500AF00F002F800BF80BD03
:1006600080B483B000AF00237B6000233B603A4A34
:10067000394B1B6843F480331360374B1B6803F41A
:1006800000333B607B6801337B603B68002B03D108
:100690007B68B3F5A06FF0D12F4B1B6803F40033D8
:1006A000002B02D001233B6001E000233B603B684C
:1006B000012B4BD1294A294B1B6843F010031360CF
:1006C000264A264B1B6823F003031360234A234B5F
:1006D0001B6843F0020313601F4A1F4B5B685360A3
:1006E0001D4A1D4B5B6853601B4A1B4B5B6843F400
:1006F00080635360184A184B5B6823F47C13536083
:10070000154A154B5B6843F4E8135360124A124BC9
:100710001B6843F08073136000BF0F4B1B6803F02E
:100720000073002BF9D00C4A0B4B5B6823F00303DA
:100730005360094A084B5B6843F00203536000BFF3
:10074000054B5B6803F00C03082BF9D100BF0C3795
:10075000BD4680BC704700BF001002400020024030
:1007600080B582B000AF114B7B60114B3B6007E05E
:100770003B681A1D3A607A68111D796012681A6028
:100780003B680C4A9342F3D30B480C494FF00002EC
:100790008842B8BF40F8042BFADBFFF727FF00F0D0
:1007A00039FC00BF0837BD4680BD00BF9C1400085F
:1007B0000000002018000020180000201C3000203D
:1007C00080B400AFFEE700BF80B489B000AF7860AE
:1007D00039600023FB6100233B610023BB610023E0
:1007E000FB6000237B610023BB603B68DB7803F088
:1007F0000F03FB613B68DB7803F01003002B05D08F
:100800003B689B781A46FB691343FB613B681B8876
:10081000DBB2002B44D07B681B687B610023BB618B
:1008200038E00122BB6902FA03F3FB603B681B88D6
:100830001A46FB6813403B613A69FB689A4226D12D
:10084000BB699B00FB600F22FB6802FA03F3BB60ED
:10085000BB68DB437A6913407B61FA69FB6802FA83
:1008600003F37A6913437B613B68DB78282B05D15E
:100870000122BB699A407B685A6108E03B68DB78DB
:10088000482B04D10122BB699A407B681A61BB697D
:100890000133BB61BB69072BC3D97B687A691A60D6
:1008A0003B681B88FF2B46D97B685B687B61002314
:1008B000BB613AE0BB690833012202FA03F3FB6033
:1008C0003B681B881A46FB6813403B613A69FB682A
:1008D0009A4227D1BB699B00FB600F22FB6802FA9A
:1008E00003F3BB60BB68DB437A6913407B61FA6941
:1008F000FB6802FA03F37A6913437B613B68DB7898
:10090000282B05D1BB69083301229A407B685A61C4
:100910003B68DB78482B05D1BB69083301229A403C
:100920007B681A61BB690133BB61BB69072BC1D905
:100930007B687A695A6000BF2437BD4680BC704727
:1009400080B487B000AF78600B46FB7000233B613A
:100950000023FB6000237B610023BB607B68002BCE
:1009600003DA2E4BDB697B6102E02C4B5B687B6119
:100970007B681B0C03F00F03BB607B689BB23B6181
:100980007B6803F44013B3F5401F0AD17B6923F061
:1009900070637B61214A214B5B6823F07063536075
:1009A00021E07B6803F48013002B0ED00322BB6888
:1009B00002FA03F3FB60FB68DB437A6913407B6157
:1009C0007B6943F070637B610DE07B685B0D1B010D
:1009D0003A6902FA03F3DB437A6913407B617B696E
:1009E00043F070637B61FB78002B08D07B685B0D64
:1009F0001B013A6902FA03F37A6913437B617B684E
:100A0000002B03DA054A7B69D36102E0034A7B6964
:100A1000536000BF1C37BD4680BC704700000140DA
:100A200080B582B000AF0121082000F023FB012136
:100A3000012000F01FFB01210A48FFF781FF01217F
:100A40000948FFF77DFF4023BB801023FB71032380
:100A5000BB713B1D19460548FFF7B6FE00BF0837BE
:100A6000BD4680BD0001300000023000000C014096
:100A700080B588B000AF0121042000F019FB244BA1
:100A80001B68244AA2FB03235B0D9BB2013BFB8343
:100A90001D233B83FB8BBB8200237B830023FB82D4
:100AA00007F1140319461C48FFF730FB00211A48D0
:100AB000FFF724FD0023BB800023FB8008237B81FC
:100AC0003B1D19461448FFF79DFB00211248FFF714
:100AD00035FD6023BB800023FB8011237B813B1D00
:100AE00019460D48FFF71AFC00210B48FFF742FD9D
:100AF0001E233B7000237B700223BB700123FB701D
:100B00003B46184600F068FC00BF2037BD4680BD5C
:100B100000000020819F5E160008004080B582B072
:100B200000AF7860264B00221A704FF0706000F022
:100B30001FFC0F2000F01CFC4FF4504000F018FC8C
:100B40007B689BB219461F4800F004FC7B689BB28F
:100B500019461D4800F0FEFB7B689BB219461B48F6
:100B600000F0F8FB1A4B00221A820121154800F010
:100B7000B7FB0121144800F0B3FB0121134800F03A
:100B8000AFFB01224FF400711148FFF793FC0122E3
:100B90004FF480610E48FFF78DFC01224FF4807105
:100BA0000B48FFF787FC1D210948FFF701FD0121D4
:100BB0000748FFF73BFC00BF0837BD4680BD00BFBC
:100BC000160000208000024008000240440002405D
:100BD0000008004080B500AF4FF4005000F0E2FB89
:100BE000012201211148FFF741FC0021104800F0CB
:100BF00077FB00210F4800F073FB00210E4800F046
:100C00006FFB00224FF400710848FFF753FC0022ED
:100C10004FF480610548FFF74DFC00224FF48071CE
:100C20000248FFF747FC00BF80BD00BF000800403E
:100C300080000240080002404400024080B500AF3E
:100C400001211048FFF7C2FC0F4B1B78DBB2122BBF
:100C500007D80D4B1B78DBB20133DAB20A4B1A709E
:100C60000EE0094B00221A7000210648FFF7DEFB58
:100C7000002201210348FFF7F9FB044B01221A70FF
:100C800000BF80BD000800401A00002016000020B0
:100C900090B484B000AF0446084611461A46234675
:100CA000FB710346BB800B46BB711346FB700023F0
:100CB000FB73E2E0BA8813465B001344DB001A467C
:100CC000FB7BD118BA8813465B001344DB001A463D
:100CD000FB7B13446D4A32F8133098B2FB79012242
:100CE00002FA03F39BB2DB439BB2024613409BB272
:100CF0009AB2664B23F81120BA8813465B0013445E
:100D0000DB0003F10802FB7BD118BA8813465B00B5
:100D10001344DB0003F10802FB7B13445B4A32F807
:100D2000133098B2FB79012202FA03F39BB2DB4342
:100D30009BB2024613409BB29AB2544B23F8112047
:100D4000BA8813465B001344DB0003F11002FB7BFF
:100D5000D118BA8813465B001344DB0003F110027C
:100D6000FB7B1344494A32F8133098B2FB790122D5
:100D700002FA03F39BB2DB439BB2024613409BB2E1
:100D80009AB2424B23F81120BA8813465B001344F1
:100D9000DB001A46FB7BD118BA8813465B0013446C
:100DA000DB001A46FB7B1344384A32F8133098B202
:100DB000FA78FB7B02FA03F3DB1103F00102FB7903
:100DC00002FA03F39BB2024613439BB29AB22F4B33
:100DD00023F81120BA8813465B001344DB0003F1AB
:100DE0000802FB7BD118BA8813465B001344DB0072
:100DF00003F10802FB7B1344244A32F8133098B203
:100E0000BA79FB7B02FA03F3DB1103F00102FB79F1
:100E100002FA03F39BB2024613439BB29AB21B4BF6
:100E200023F81120BA8813465B001344DB0003F15A
:100E30001002FB7BD118BA8813465B001344DB0019
:100E400003F11002FB7B1344104A32F8133098B2BE
:100E50003A7EFB7B02FA03F3DB1103F00102FB791C
:100E600002FA03F39BB2024613439BB29AB2074BBA
:100E700023F81120FB7B0133FB73FB7B072B7FF6F1
:100E800019AF00BF1037BD4690BC70471C00002052
:100E900090B587B002AF0446084611461A4623466D
:100EA000FB710346BB800B46BB711346FB700023EE
:100EB000FB730DE0FB7B99B2FC78BA79F87997F86F
:100EC000203000932346FFF7E3FEFB7B0133FB73E7
:100ED000FB7B9BB2BA889A42ECD800BF1437BD4660
:100EE00090BD00BF80B58CB000AF0121012000F0A3
:100EF000A3F83C4800F0FAF83B4B7B603B4BBB60EF
:100F00001023FB6000233B6100237B610023BB6156
:100F10004FF48073FB614FF480633B6200237B627C
:100F20004FF40053BB620023FB623B1D19462D4862
:100F300000F098F92E4800F0D9F82B4B7B602D4B30
:100F4000BB601023FB6000233B6100237B61802397
:100F5000BB614FF48073FB614FF480633B620023FD
:100F60007B624FF40053BB620023FB623B1D1946BA
:100F70001F4800F077F9204800F0B8F81A4B7B6062
:100F80001E4BBB601023FB6000233B6100237B6191
:100F90000023BB614FF48073FB614FF480633B62BD
:100FA00000237B624FF40053BB620023FB623B1DB6
:100FB0001946114800F056F90E233B7000237B7050
:100FC0000123BB700123FB703B46184600F004FA76
:100FD00001220221084800F09FF900BF3037BD46CA
:100FE00080BD00BF800002400C0C014014000020B6
:100FF000080002401C0000204400024018000020AD
:1010000080B500AFFFF70CFDFFF76CFFFFF730FD79
:1010100000BF80BD80B582B002AFFFF7F1FF0A23A9
:10102000009300230A220C210020FFF731FF4FF428
:101030009C70FFF773FDFEE780B483B000AF78606B
:101040000B46FB70FB78002B06D00949084B5A6908
:101050007B6813434B6106E00549054B5A697B6881
:10106000DB4313404B6100BF0C37BD4680BC70476B
:101070000010024080B483B000AF78600B46FB7074
:10108000FB78002B06D00949084B9A697B6813430B
:101090008B6106E00549054B9A697B68DB43134089
:1010A0008B6100BF0C37BD4680BC7047001002400A
:1010B00080B483B000AF78600B46FB70FB78002BE8
:1010C00006D00949084BDA697B681343CB6106E017
:1010D0000549054BDA697B68DB431340CB6100BFF0
:1010E0000C37BD4680BC70470010024080B483B00E
:1010F00000AF78607B681A684FF6FE7313407A6819
:1011000013607B6800221A607B6800225A607B684B
:1011100000229A607B680022DA607B68434A93422F
:1011200006D1434A424B5B6843F00F03536077E0BC
:101130007B68404A934206D13D4A3D4B5B6843F091
:10114000F00353606CE07B683B4A934206D1384A17
:10115000374B5B6843F47063536061E07B68374AE8
:10116000934206D1324A324B5B6843F4704353607A
:1011700056E07B68324A934206D12D4A2C4B5B687D
:1011800043F4702353604BE07B682E4A934206D1B0
:10119000274A274B5B6843F47003536040E07B6849
:1011A000294A934206D1224A214B5B6843F070637F
:1011B000536035E07B68254A934206D1244A244B8C
:1011C0005B6843F00F0353602AE07B68214A934237
:1011D00006D11F4A1E4B5B6843F0F00353601FE0CB
:1011E0007B681D4A934206D1194A194B5B6843F448
:1011F0007063536014E07B68184A934206D1144A26
:10120000134B5B6843F47043536009E07B68144AF6
:10121000934205D10E4A0E4B5B6843F47023536032
:1012200000BF0C37BD4680BC704700BF08000240BD
:10123000000002401C000240300002404400024016
:10124000580002406C000240800002400804024046
:10125000000402401C0402403004024044040240E6
:101260005804024080B485B000AF78603960002334
:10127000FB607B681B68FB60FB6823F4FF4323F083
:101280007003FB603B689A683B681B6A1A433B68C3
:101290001B691A433B685B691A433B689B691A43A5
:1012A0003B68DB691A433B685B6A1A433B689B6A8D
:1012B0001343FA681343FB607B68FA681A603B6863
:1012C000DA687B685A603B681A687B689A603B689A
:1012D0005A687B68DA6000BF1437BD4680BC70472F
:1012E00080B483B000AF78600B46FB70FB78002BB6
:1012F00006D07B681B6843F001027B681A6006E039
:101300007B681A684FF6FE7313407A68136000BF5B
:101310000C37BD4680BC704780B485B000AFF86024
:10132000B9601346FB71FB79002B06D0FB681A6885
:10133000BB681A43FB681A6006E0FB681A68BB6862
:10134000DB431A40FB681A6000BF1437BD4680BCFF
:10135000704700BF80B483B000AF78600B467B80DD
:101360007A887B685A6000BF0C37BD4680BC7047E6
:1013700080B483B000AF78607B6803F08053002BAB
:1013800003D0064A7B68536002E0054A7B685360DD
:1013900000BF0C37BD4680BC704700BF0004024050
:1013A0000000024080B483B000AF78607B6803F037
:1013B0008053002B03D0064A7B68536002E0054A45
:1013C0007B68536000BF0C37BD4680BC704700BFD0
:1013D000000402400000024080B487B000AF786093
:1013E00000237B6100233B610F23FB607B68DB787C
:1013F000002B3AD0274BDB68DB4303F4E0631B0A86
:101400007B617B69C3F104033B61FA687B6922FA63
:1014100003F3FB607B685B781A463B6902FA03F3CF
:101420007B617B689B781A46FB6813407A6913439B
:101430007B617B691B017B61174A7B681B7879693B
:10144000C9B213440A4683F80023134A7B681B7809
:101450005B09DBB218467B681B7803F01F03012190
:1014600001FA03F342F820300FE00B497B681B7848
:101470005B09DBB218467B681B7803F01F0301226F
:101480009A4000F1200341F8232000BF1C37BD46DD
:0C14900080BC704700ED00E000E100E0CF
:10149C0000A24A0400000000000000000102030446
:0814AC0006070809FFFF01001B
:0400000508000000EF
:00000001FF
