:020000040800F2
:10000000F81F002001010008B3120008B111000818
:10001000B112000849010008831600080000000022
:10002000000000000000000000000000FD120008B9
:100030009501000800000000D5120008FF1200081A
:100040001B0100081B0100081B0100081B01000820
:100050001B0100081B0100081B0100081B01000810
:100060001B0100081B0100081B0100081B01000800
:100070001B0100081B0100081B0100081B010008F0
:100080001B0100084D0100081B0100081B010008AE
:100090001B0100081B0100081B0100081B010008D0
:1000A0001B0100081B0100081B0100081B010008C0
:1000B0001B0100081B0100081B0100081B010008B0
:1000C0001B0100081B0100081B0100081B010008A0
:1000D0001B0100081B0100081B0100081B01000890
:1000E0001B0100081B0100081B010008DFF80CD0F1
:1000F00000F018F800480047A5160008F81F002077
:100100000648804706480047FEE7FEE7FEE7FEE7B1
:10011000FEE7FEE7FEE7FEE7FEE7FEE791130008D5
:10012000ED000008064C074D06E0E06840F00103D2
:1001300094E8070098471034AC42F6D3FFF7DAFF93
:10014000D0170008F0170008FEE7000010B50421E2
:10015000034800F0E7FFBDE81040024800F01CB87B
:10016000100000205000002030B590F840500124CD
:10017000AC40C56B6C60046863604368102B04D0AE
:10018000036899600068C26030BD03689A600068C7
:10019000C16030BD704700002DE9F05FC16B0A6897
:1001A00001680B68046C4FF0040A0AFA04FA4E4D19
:1001B0004E4E4F4FDFF83CC1DFF83C81DFF83C91F9
:1001C0001AEA020F31D05FEA437A2ED50A68920606
:1001D00003D40A6822F004020A600168A94201D12E
:1001E000042119E0B14201D1402115E0B94202D108
:1001F0004FF4806110E0614502D14FF480410BE083
:10020000414502D14FF4802106E0494502D14FF427
:10021000800101E04FF08061334A083A5160C16AC1
:1002200000295FD0BDE8F05F08474FF0020E0EFADC
:1002300004FE1EEA020F4FF0000A4FF0010B35D00A
:100240005FEA837E32D50A68920605D40A6822F0F6
:100250000A020A6080F821B00168A94201D1022196
:1002600019E0B14201D1202115E0B94202D14FF489
:10027000007110E0614502D14FF400510BE041459F
:1002800002D14FF4003106E0494502D14FF400118C
:1002900001E04FF00071144A083A516080F820A044
:1002A000816A00291ED0BDE8F05F08470825A540F7
:1002B000154217D01A0715D50A6822F00E020A60F7
:1002C00090F84010C26B0BFA01F15160C0F838B0E1
:1002D00080F821B080F820A0016B002902D0BDE891
:1002E000F05F0847BDE8F09F080002401C00024094
:1002F0003000024044000240580002406C000240BE
:1003000030B500282BD0001D164A50F8041C1423C9
:100310000A44B2FBF3F29200C263134A82630222E0
:1003200042770A6843F6F0739A43D0E900342343D6
:10033000D0E902452C432343046923434469234302
:100340008469234313430B60002141628162C162CF
:1003500001634163012242770177002030BD012013
:1003600030BD0000F8FFFDBF0000024070B504463C
:10037000002594F8200001280CD0012084F82000EA
:1003800094F821600020012E06D084F82000022578
:10039000284670BD022070BD022684F82160A0634B
:1003A0002068066826F0010606602046FFF7DCFE9E
:1003B000E06A28B12068016841F00E01016009E09F
:1003C0002068016821F0040101602068016841F0A3
:1003D0000A0101602068016841F001010160D7E76E
:1003E0002DE9F84F00230024DFF8C0914FF00F08EB
:1003F00009F1040A0AF1040B0BF1040E0127A740CE
:100400000A683A40BA4275D1DFF8A4C14D68A5EB3D
:100410000C0665452BD00DDC032D34D005DC35B33F
:10042000012D19D0022D2FD11BE0112D16D0122D28
:100430002AD119E0B6F5881F19D006DCB6F5803F41
:1004400015D0B6F5801F1FD111E0B6F5001F0ED0F4
:10045000B6F5041F18D10AE0CB6815E0CB681B1D68
:1004600012E0CB6808330FE0CB680C330CE08B68EC
:1004700023B1012B04D00823476105E0042303E0E6
:100480000823076100E00023FF2A01D8054601E0A8
:1004900000F1040502D84FEA840603E0A4F108063F
:1004A0004FEA86062F6808FA06FC27EA0C0703FACB
:1004B00006F647EA06072F604D68ED0070D53D4D02
:1004C000AE6946F00106AE61AD6905F00105009523
:1004D000394D24F003067719BE68A5072D0F08FAD9
:1004E00005FC26EA0C06DFF8D4C0604503D14FF0C6
:1004F000000C17E054E0DFF8C8C0604502D14FF0AF
:10050000010C0FE0DFF8BCC0604502D14FF0020CD7
:1005100008E0DFF8B4C0604502D14FF0030C01E001
:100520004FF0040C0CFA05FC4CEA060CC7F808C0A6
:100530004D68ED0305D5D9F800501543C9F80050B2
:1005400004E0D9F800509543C9F800504D68AD0358
:1005500005D5DAF800501543CAF8005004E0DAF87F
:1005600000509543CAF800504D68ED0205D5DBF800
:1005700000501543CBF8005004E0DBF800509543E1
:10058000CBF800504D68AD0205D5DEF8005015439C
:10059000CEF8005004E0DEF800509543CEF800504D
:1005A000641C102CFFF42AAFBDE8F88F0004014052
:1005B000000011100010024000000140000801403E
:1005C000000C014000100140001401400148806807
:1005D0007047000000000020024881680278114442
:1005E000816070470000002010B50748016841F0A5
:1005F00010010160032000F09FF8002000F006F8D1
:1006000000F026F8002010BD0020024070B504461E
:100610000D4D4FF47A712878B1FBF0F00B49096861
:10062000B1FBF0F000F047FB08B1012070BD102CC9
:1006300007D200222146501E00F05EF86C600020B8
:1006400070BD012070BD0000000000200C000020E3
:1006500008B52148816941F001018161816901F09A
:1006600001010091C16941F08051C161C06900F090
:1006700080500090032000F05FF8002211466FF0D8
:100680000B0000F039F8002211466FF00A0000F06C
:1006900033F8002211466FF0090000F02DF8002217
:1006A0001146501F00F028F800221146101F00F0DC
:1006B00023F800221146901E00F01EF80022114679
:1006C000501E00F019F80549486820F0E06040F03D
:1006D0000070486008BD00000010024000000140AA
:1006E00000F01F02012191404009800000F1E0204C
:1006F000C0F8001170470000F0B40D460D4B1B68A8
:10070000C3F30223C3F10704042C00D90424191DE8
:10071000072901D2002300E0DB1E012606FA04F1BE
:10072000491E294099409E40761E16403143F0BC38
:1007300000F0C0BD0CED00E000F00701054A1068B4
:100740004FF6FF03184040EA0120034908431060B8
:10075000704700000CED00E00000FA052DE9F047BD
:1007600004460E46DFF84881D8F8000000F0070084
:10077000B0420FD2D8F8000020F007003043C8F88C
:100780000000D8F8000000F00700B04202D00120BD
:10079000BDE8F0872078474F800705D57868A168C5
:1007A00020F0F000084378602078C00748D06068E7
:1007B000012806D0022809D0396889070BD4012006
:1007C000E6E73968890306D40120E1E73968890141
:1007D00001D40120DCE7796821F00301014379604D
:1007E000FFF7F4FE0546606841F28839012809D018
:1007F000022814D020E0FFF7E9FE401B484501D94C
:100800000320C5E77868C0F381000128F3D117E021
:10081000FFF7DCFE401B484501D90320B8E77868A4
:10082000C0F381000228F3D10AE0FFF7CFFE401B9E
:10083000484501D90320ABE7786810F00C0FF4D1DC
:10084000D8F8000000F00700B0420ED9D8F8000038
:1008500020F007003043C8F80000D8F8000000F08E
:100860000700B04201D0012092E72078400705D56B
:100870007868E16820F4E060084378602078000739
:1008800006D57868216920F4605040EAC10078609C
:1008900000F01CF87968084AC1F30311515CC840A4
:1008A000064908600020FFF7B1FE002070E7000055
:1008B0000020024000100240C01700080C00002079
:1008C00001480068704700000C00002085B014A0AB
:1008D00090E80E00C068CDE902230191049014A0B5
:1008E00000680090134B5968134801F00C02042A69
:1008F00010D0082A0ED101A8C1F38342805CC9033D
:100900000AD55968C1F340411DF801100A4A504305
:10091000B0FBF1F005B0704708494843FAE7000022
:1009200002030405060708090A0B0C0D0E0F101030
:10093000010200000010024000127A0000093D0090
:100940002DE9F84F0446D04D2078C0075BD0686889
:10095000C0F38100012807D06868C0F38100022835
:100960000AD16868C00307D5286880034BD5606842
:1009700078BB0120BDE8F88F6068B0F5803F11D0EA
:10098000A8B1B0F5A02F1BD0286820F480302860D3
:10099000286820F480202860606830B3FFF716FED6
:1009A00006461EE0286840F480302860F4E7286896
:1009B00020F480302860286820F480202860EBE74D
:1009C000286840F480202860286840F4803028603F
:1009D000E2E718E0FFF7FAFD801B642801D9032045
:1009E000C8E728688003F5D50DE0FFF7EFFD064660
:1009F00006E0FFF7EBFD801B642801D90320B9E76F
:100A000028688003F5D42078DFF8808280074FF0D3
:100A1000010A4FF0000945D5686810F00C0F07D0A7
:100A20006868C0F38100022812D16868C0030FD43F
:100A30002868800704D52069012801D0012099E7A2
:100A40002868616920F0F80040EAC100286029E0C8
:100A50002069B8B1C8F800A0FFF7B8FD064606E067
:100A6000FFF7B4FD801B022801D9032082E7286824
:100A70008007F5D52868616920F0F80040EAC100D8
:100A800028600FE0C8F80090FFF7A0FD064606E0DA
:100A9000FFF79CFD801B022801D903206AE7286824
:100AA0008007F5D42078000726D57948A16999B147
:100AB000C0F800A0FFF78AFD064606E0FFF786FDB6
:100AC000801B022801D9032054E7686A8007F5D506
:100AD000012000F001FC0FE0C0F80090FFF776FD68
:100AE000064606E0FFF772FD801B022801D90320AD
:100AF00040E7686A8007F5D42078400773D5002660
:100B0000E869C00008D4E86940F08050E861E8690D
:100B100000F0805000900126DFF878B1DBF800008B
:100B2000C00514D4DBF8000040F48070CBF800005E
:100B3000FFF74CFD074606E0FFF748FDC01B6428A1
:100B400001D9032016E7DBF80000C005F4D5E06802
:100B5000012812D0B0B105281DD0286A20F001006C
:100B60002862286A20F004002862E06841F2883B8D
:100B700028B3FFF72BFD07461DE0286A40F001006F
:100B80002862F2E7286A20F001002862286A20F033
:100B900004002862E9E7286A40F004002862286A15
:100BA00040F001002862E0E7FFF710FDC01B584548
:100BB00001D90320DEE6286A8007F5D50DE0FFF7AE
:100BC00005FD074606E0FFF701FDC01B584501D9AA
:100BD0000320CFE6286A8007F5D4012E03D1E86907
:100BE00020F08050E861E069A0B36968C1F3810139
:100BF000022947D0022805D0C8F86090FFF7E6FC2C
:100C000004463AE0C8F86090FFF7E0FC064606E0CC
:100C1000FFF7DCFC801B022801D90320AAE6286824
:100C20008001F5D4206AB0F5803F05D16868A168DD
:100C300020F4003008436860D4E90801084369687B
:100C400021F4741108436860C8F860A0FFF7BEFC87
:100C5000044607E014E0FFF7B9FC001B022801D9A5
:100C6000032087E628688001F5D509E0FFF7AEFC90
:100C7000001B022801D903207CE628688001F5D4F6
:100C8000002077E6012075E6001002400000424295
:100C900080044242007000404FF0E021042804D05C
:100CA000086920F0040008617047086940F00400FA
:100CB00008617047704710B5401EB0F1807F01D3C6
:100CC000012010BD4FF0E02460610F21601700F09B
:100CD000F1FA0020A06107202061002010BD10B5AE
:100CE000FFF7E8FF10BD30B590F83C20012A20D076
:100CF000012380F83C30022280F83D2002685468CD
:100D000024F070045460026854680D682C435460E9
:100D10000268946824F080049460026894684968CA
:100D20000C43946080F83D30002180F83C10002096
:100D300030BD022030BD10B50446002C03D094F81D
:100D40003D0010B107E0012010BD002084F83C00F8
:100D5000204600F00DF8022084F83D00211D206897
:100D600000F03AFB012084F83D00002010BD000097
:100D700038B504462068B0F1804F23D11248C169CC
:100D800041F00101C161C06900F001000090104D07
:100D90000E482860102068600020A8608021E9606B
:100DA0004900296189006961A861E8612846FFF767
:100DB000A7FA18B16E2107A000F064FCA5626C626E
:100DC00025636C6238BD00000010024080000240C4
:100DD000500000202E2E2F5372632F73746D333208
:100DE000663178785F68616C5F6D73702E630000A8
:100DF00070B5044694F83C00012817D0012584F80A
:100E00003C50022084F83D002068826822F077027E
:100E100022F47F428260086850283AD00DDC2028F6
:100E20005FD005DCA0B3102864D155E0022070BD6E
:100E300030285BD040285DD13FE0602833D0702857
:100E40000CD0B0F5805F03D0B0F5005F52D113E055
:100E50002068816821F0070181604BE0CB68D1E90F
:100E60000121206800F022FB2068816821F07701D1
:100E700041F0770181603DE0CB68D1E90121206834
:100E800000F014FB2068816841F48041816031E00A
:100E90001DE0CA684968206800F0D0FB5021206836
:100EA00000F00EFB26E0CA684968206800F0D7FB16
:100EB0006021206800F004FB1CE0CA6849682068D3
:100EC00000F0BCFB4021206800F0FAFA12E000219B
:100ED000206800F0F5FA0DE01021206800F0F0FA2B
:100EE00008E02021206800F0EBFA03E030212068C0
:100EF00000F0E6FA3C3465700020207070BD704749
:100F00001FB50068B0F1804F07D10220009001901A
:100F1000039069460148FFF763FA1FBD00080140CE
:100F200070B504460D4694F83C0001280DD001260A
:100F300084F83C60022084F83D0042B1042A1AD0B3
:100F4000082A2DD00C2A53D13EE0022070BD29463C
:100F5000206800F0BDFA2068816941F008018161D4
:100F60002068816921F004018161206881692A6912
:100F7000114381613CE02946206800F0D9FA2068DD
:100F8000816941F4006181612068816921F4806197
:100F90008161206881692A6941EA0221816127E033
:100FA0002946206800F0F6FA2068C16941F008017E
:100FB000C1612068C16921F00401C1612068C16973
:100FC0002A691143C16113E02946206800F012FB31
:100FD0002068C16941F40061C1612068C16921F4E0
:100FE0008061C1612068C1692A6941EA0221C16149
:100FF0003C3466700020207070BD10B50446002C93
:1010000003D094F83D0010B107E0012010BD00208E
:1010100084F83C00204600F00CF8022084F83D00E3
:10102000211D206800F0D8F9012084F83D0000203F
:1010300010BD70477047000070B50D46044611465C
:1010400094F83D00022804D094F83D00012802D015
:1010500008E0022070BD11B90BB1012070BD022063
:1010600084F83D002C482D4A35B1042D13D0082DAD
:1010700020D00C2D3BD12CE0666AB062606A02631E
:101080002268606A3432FFF771F92068C16841F460
:101090000071C1602BE0A66AB062A06A0263226898
:1010A000A06A3832FFF762F92068C16841F48061B4
:1010B000C1601CE0E66AB062E06A02632268E06A2E
:1010C0003C32FFF753F92068C16841F40061C16008
:1010D0000DE0266BB062206B02632268206B403209
:1010E000FFF744F92068C16841F48051C1600122D2
:1010F0002946206800F0A6F909492068884203D1F2
:10110000416C41F4004141642068016841F00101F3
:101110000160002070BD00005B1400089D140008F1
:10112000002C014010B504460029226806D004298D
:1011300009D008290CD00C2913D10EE0D06820F476
:101140000070D0600DE0D06820F48060D06008E0CE
:10115000D06820F40060D06003E0D06820F48050B4
:10116000D0600022206800F06DF9104B41F211129E
:1011700020689110984209D1036A134206D1036A8C
:101180000B4203D1436C23F4004343642068036A99
:10119000134206D1026A0A4203D1016821F001011B
:1011A0000160012084F83D00002010BD002C0140AA
:1011B000FEE7000008B50948416941F001014161BD
:1011C000406900F001000090002211461120FFF755
:1011D00093FABDE808401120FFF782BA00100240E0
:1011E00008B50948816941F020018161816901F0F8
:1011F00020010091816941F004018161806900F062
:101200000400009008BD00000010024010B58EB030
:1012100022484FF0804101600024446084605921DD
:10122000C16004618461FFF786FD18B1CD211CA067
:1012300000F028FA4FF480500A900AA91748FFF7E7
:10124000D7FD18B1D32116A000F01CFA1348FFF700
:10125000D4FE18B1D82112A000F014FA0894099411
:1012600008A90E48FFF73FFD18B1DF210CA000F0E0
:1012700009FA60200190029403940594042201A9C4
:101280000648FFF74DFE18B1E82105A000F0FAF975
:101290000248FFF735FE0EB010BD00001000002020
:1012A0002E2E2F5372632F6D61696E2E6300000026
:1012B000FEE770470907090E002806DA00F00F0064
:1012C00000F1E02080F8141D704700F1E02080F864
:1012D000001470477047000008B507494FF4FA52F0
:1012E0000968B1FBF2F14143009100BF0098411E33
:1012F0000091FAD208BD00000C000020704710B524
:10130000FFF76AF9BDE81040FFF7E9BC30B58FB0D0
:1013100001210591080406900024079409910225F3
:101320000C950D904FF4E0100E9005A8FFF708FB08
:1013300018B1A02112A000F0A5F90F20009001958E
:1013400002944FF480600390049402216846FFF7F2
:1013500005FA18B1AE210AA000F094F9FFF7B0FA2F
:101360004FF47A71B0FBF1F0FFF7A5FC0420FFF712
:1013700093FC00221146501EFFF7BEF90FB030BD9E
:101380002E2E2F5372632F6D61696E2E6300000045
:101390000D48016841F00101016041680B4A1140AC
:1013A000416001680A4A11400160016821F480210E
:1013B0000160416821F4FE0141604FF41F0181602A
:1013C0000449C00308607047001002400000FFF8A5
:1013D000FFFFF6FE08ED00E0F0B50268164C174D71
:1013E000174E4FF08047A04205D0B84203D0A84224
:1013F00001D0B04203D122F070034A681A43A042E0
:1014000005D0B84203D0A84201D0B04203D122F4A3
:101410004073CA681A4322F080024B691343036089
:101420008A68C2620A688262A04201D109690163C6
:1014300001214161F0BD0000002C0140000400408A
:101440000008004010B501238B40046A9C430462ED
:10145000036A8A401343036210BD10B5446A012138
:1014600084F83D10626A824201D1217710E0A16ABE
:10147000814202D1022020770AE0E16A814202D152
:101480000420207704E0216B814201D108202077DD
:101490002046FFF7CFFD0020207710BD10B5406A31
:1014A000012180F83D10FFF72AFD10BD10B58468BA
:1014B00024F47F4442EA03220A432243826010BD9F
:1014C000826822F070020A4342F00701816070478F
:1014D00030B5026A22F001020262036A426884693E
:1014E00024F0700424F003050C682C4323F002055B
:1014F0008B682B430D4DA84206D123F00805CB681D
:1015000043EA050323F0040309D122F4807222F494
:1015100000724D6945EA02058A6942EA05024260A5
:10152000846149684163036230BD0000002C0140C2
:1015300030B5026A22F010020262036A42688469CE
:1015400024F4E04424F440740D6844EA052423F0B4
:1015500020038D6843EA05130D4DA84206D123F000
:101560008003CD6843EA051323F0400309D122F438
:10157000806222F400624D6942EA85028D6942EA86
:1015800085024260846149688163036230BD000066
:10159000002C014030B5026A22F480720262036AB4
:1015A0004268C46924F0700424F003050C682C43DD
:1015B00023F400738D6843EA05230D4DA84206D13C
:1015C00023F40063CD6843EA052323F4806309D143
:1015D00022F4805222F400524D6942EA05128D69CC
:1015E00042EA05124260C4614968C163036230BDCA
:1015F000002C014030B5026A22F480520262036A74
:101600004268C46924F4E04424F440740D6844EA58
:10161000052423F400538D6843EA0533064DA842A0
:1016200004D122F480424D6942EA85124260C461CD
:1016300049680164036230BD002C014010B5036AA3
:10164000046A24F001040462846924F0F00444EA8A
:10165000021423F00A020A438461026210BD10B52D
:10166000036A23F0100303628469036A24F470445C
:1016700044EA023223F0A00343EA011182610162CD
:1016800010BDFEE7FEE702E008C8121F08C1002AED
:10169000FAD170477047002001E001C1121F002AF3
:1016A000FBD17047FEF7A0FFFFF730FEFFF798FD74
:1016B000FFF780FDFFF7AAFD00F012F80023472294
:1016C00063211C2000F01AF84FF45B63024A0421E6
:1016D0000248FFF7B1FCFEE7940000201000002054
:1016E0003020054A1A214FF45B6322F81010401C89
:1016F0009842FADB70470000940000202DE9F84181
:101700000024009441264FF0010803EB43032B4CC7
:101710001A274CE0BDF80050C5F1070C08FA0CF58B
:10172000054208D0BDF8005005EBC30C0CF1380C95
:1017300024F81C6007E0BDF8005005EBC30C0CF169
:10174000380C24F81C70BDF80050C5F1070C08FADD
:101750000CF50D4208D0BDF8005005EBC30C0CF1A0
:10176000300C24F81C6007E0BDF8005005EBC30CFA
:101770000CF1300C24F81C70BDF80050C5F1070CBA
:1017800008FA0CF5154207D0BDF8005005EBC3056B
:10179000403524F8156006E0BDF8005005EBC305A0
:1017A000403524F81570BDF800506D1C0095BDF84B
:1017B0000050082DAED3BDE8F88100009400002051
:1017C00000000000000000000102030406070809F1
:1017D000F017000800000020100000008616000826
:1017E0000018000810000020E81F000096160008EE
:1017F00001000000100000000000000000A24A04E8
:04000005080000ED02
:00000001FF
